{
  "_format": "hh-sol-artifact-1",
  "contractName": "Multicall",
  "sourceName": "contracts/Multicall.sol",
  "abi": [
    {
      "inputs": [
        {
          "internalType": "contract IZkLink",
          "name": "_zkLinkInstance",
          "type": "address"
        }
      ],
      "stateMutability": "nonpayable",
      "type": "constructor"
    },
    {
      "inputs": [
        {
          "internalType": "address payable[]",
          "name": "owners",
          "type": "address[]"
        },
        {
          "internalType": "uint16[]",
          "name": "tokenids",
          "type": "uint16[]"
        },
        {
          "internalType": "uint128[]",
          "name": "amounts",
          "type": "uint128[]"
        }
      ],
      "name": "batchWithdrawPendingBalance",
      "outputs": [
        {
          "internalType": "uint8",
          "name": "res",
          "type": "uint8"
        }
      ],
      "stateMutability": "nonpayable",
      "type": "function"
    },
    {
      "inputs": [
        {
          "internalType": "address[]",
          "name": "targets",
          "type": "address[]"
        },
        {
          "internalType": "bytes[]",
          "name": "calls",
          "type": "bytes[]"
        }
      ],
      "name": "multiStaticCall",
      "outputs": [
        {
          "internalType": "uint256",
          "name": "blockNumber",
          "type": "uint256"
        },
        {
          "components": [
            {
              "internalType": "bool",
              "name": "success",
              "type": "bool"
            },
            {
              "internalType": "bytes",
              "name": "returnData",
              "type": "bytes"
            }
          ],
          "internalType": "struct Multicall.Result[]",
          "name": "returnData",
          "type": "tuple[]"
        }
      ],
      "stateMutability": "view",
      "type": "function"
    }
  ],
  "bytecode": "0x60806040523480156200001157600080fd5b506040516200118b3803806200118b8339818101604052810190620000379190620000fc565b806000806101000a81548173ffffffffffffffffffffffffffffffffffffffff021916908373ffffffffffffffffffffffffffffffffffffffff160217905550506200012e565b600080fd5b600073ffffffffffffffffffffffffffffffffffffffff82169050919050565b6000620000b08262000083565b9050919050565b6000620000c482620000a3565b9050919050565b620000d681620000b7565b8114620000e257600080fd5b50565b600081519050620000f681620000cb565b92915050565b6000602082840312156200011557620001146200007e565b5b60006200012584828501620000e5565b91505092915050565b61104d806200013e6000396000f3fe608060405234801561001057600080fd5b50600436106100365760003560e01c80639c5367dc1461003b578063a2e1caa81461006c575b600080fd5b61005560048036038101906100509190610743565b61009c565b60405161006392919061096d565b60405180910390f35b61008660048036038101906100819190610ca6565b610209565b6040516100939190610d69565b60405180910390f35b60006060439150825167ffffffffffffffff8111156100be576100bd61040c565b5b6040519080825280602002602001820160405280156100f757816020015b6100e46103c6565b8152602001906001900390816100dc5790505b50905060005b83518161ffff16101561020157600080868361ffff168151811061012457610123610d84565b5b602002602001015173ffffffffffffffffffffffffffffffffffffffff16868461ffff168151811061015957610158610d84565b5b602002602001015160405161016e9190610def565b600060405180830381855afa9150503d80600081146101a9576040519150601f19603f3d011682016040523d82523d6000602084013e6101ae565b606091505b50915091506040518060400160405280831515815260200182815250848461ffff16815181106101e1576101e0610d84565b5b6020026020010181905250505080806101f990610e35565b9150506100fd565b509250929050565b6000825184511461024f576040517f08c379a000000000000000000000000000000000000000000000000000000000815260040161024690610ebc565b60405180910390fd5b8151845114610293576040517f08c379a000000000000000000000000000000000000000000000000000000000815260040161028a90610f28565b60405180910390fd5b6000905060005b84518160ff1610156103be5760008054906101000a900473ffffffffffffffffffffffffffffffffffffffff1673ffffffffffffffffffffffffffffffffffffffff16632f25807e868360ff16815181106102f8576102f7610d84565b5b6020026020010151868460ff168151811061031657610315610d84565b5b6020026020010151868560ff168151811061033457610333610d84565b5b60200260200101516040518463ffffffff1660e01b815260040161035a93929190610f75565b6020604051808303816000875af192505050801561039657506040513d601f19601f820116820180604052508101906103939190610fc1565b60015b156103ab575081806103a790610fee565b9250505b80806103b690610fee565b91505061029a565b509392505050565b6040518060400160405280600015158152602001606081525090565b6000604051905090565b600080fd5b600080fd5b600080fd5b6000601f19601f8301169050919050565b7f4e487b7100000000000000000000000000000000000000000000000000000000600052604160045260246000fd5b610444826103fb565b810181811067ffffffffffffffff821117156104635761046261040c565b5b80604052505050565b60006104766103e2565b9050610482828261043b565b919050565b600067ffffffffffffffff8211156104a2576104a161040c565b5b602082029050602081019050919050565b600080fd5b600073ffffffffffffffffffffffffffffffffffffffff82169050919050565b60006104e3826104b8565b9050919050565b6104f3816104d8565b81146104fe57600080fd5b50565b600081359050610510816104ea565b92915050565b600061052961052484610487565b61046c565b9050808382526020820190506020840283018581111561054c5761054b6104b3565b5b835b8181101561057557806105618882610501565b84526020840193505060208101905061054e565b5050509392505050565b600082601f830112610594576105936103f6565b5b81356105a4848260208601610516565b91505092915050565b600067ffffffffffffffff8211156105c8576105c761040c565b5b602082029050602081019050919050565b600080fd5b600067ffffffffffffffff8211156105f9576105f861040c565b5b610602826103fb565b9050602081019050919050565b82818337600083830152505050565b600061063161062c846105de565b61046c565b90508281526020810184848401111561064d5761064c6105d9565b5b61065884828561060f565b509392505050565b600082601f830112610675576106746103f6565b5b813561068584826020860161061e565b91505092915050565b60006106a161069c846105ad565b61046c565b905080838252602082019050602084028301858111156106c4576106c36104b3565b5b835b8181101561070b57803567ffffffffffffffff8111156106e9576106e86103f6565b5b8086016106f68982610660565b855260208501945050506020810190506106c6565b5050509392505050565b600082601f83011261072a576107296103f6565b5b813561073a84826020860161068e565b91505092915050565b6000806040838503121561075a576107596103ec565b5b600083013567ffffffffffffffff811115610778576107776103f1565b5b6107848582860161057f565b925050602083013567ffffffffffffffff8111156107a5576107a46103f1565b5b6107b185828601610715565b9150509250929050565b6000819050919050565b6107ce816107bb565b82525050565b600081519050919050565b600082825260208201905092915050565b6000819050602082019050919050565b60008115159050919050565b61081581610800565b82525050565b600081519050919050565b600082825260208201905092915050565b60005b8381101561085557808201518184015260208101905061083a565b60008484015250505050565b600061086c8261081b565b6108768185610826565b9350610886818560208601610837565b61088f816103fb565b840191505092915050565b60006040830160008301516108b2600086018261080c565b50602083015184820360208601526108ca8282610861565b9150508091505092915050565b60006108e3838361089a565b905092915050565b6000602082019050919050565b6000610903826107d4565b61090d81856107df565b93508360208202850161091f856107f0565b8060005b8581101561095b578484038952815161093c85826108d7565b9450610947836108eb565b925060208a01995050600181019050610923565b50829750879550505050505092915050565b600060408201905061098260008301856107c5565b818103602083015261099481846108f8565b90509392505050565b600067ffffffffffffffff8211156109b8576109b761040c565b5b602082029050602081019050919050565b60006109d4826104b8565b9050919050565b6109e4816109c9565b81146109ef57600080fd5b50565b600081359050610a01816109db565b92915050565b6000610a1a610a158461099d565b61046c565b90508083825260208201905060208402830185811115610a3d57610a3c6104b3565b5b835b81811015610a665780610a5288826109f2565b845260208401935050602081019050610a3f565b5050509392505050565b600082601f830112610a8557610a846103f6565b5b8135610a95848260208601610a07565b91505092915050565b600067ffffffffffffffff821115610ab957610ab861040c565b5b602082029050602081019050919050565b600061ffff82169050919050565b610ae181610aca565b8114610aec57600080fd5b50565b600081359050610afe81610ad8565b92915050565b6000610b17610b1284610a9e565b61046c565b90508083825260208201905060208402830185811115610b3a57610b396104b3565b5b835b81811015610b635780610b4f8882610aef565b845260208401935050602081019050610b3c565b5050509392505050565b600082601f830112610b8257610b816103f6565b5b8135610b92848260208601610b04565b91505092915050565b600067ffffffffffffffff821115610bb657610bb561040c565b5b602082029050602081019050919050565b60006fffffffffffffffffffffffffffffffff82169050919050565b610bec81610bc7565b8114610bf757600080fd5b50565b600081359050610c0981610be3565b92915050565b6000610c22610c1d84610b9b565b61046c565b90508083825260208201905060208402830185811115610c4557610c446104b3565b5b835b81811015610c6e5780610c5a8882610bfa565b845260208401935050602081019050610c47565b5050509392505050565b600082601f830112610c8d57610c8c6103f6565b5b8135610c9d848260208601610c0f565b91505092915050565b600080600060608486031215610cbf57610cbe6103ec565b5b600084013567ffffffffffffffff811115610cdd57610cdc6103f1565b5b610ce986828701610a70565b935050602084013567ffffffffffffffff811115610d0a57610d096103f1565b5b610d1686828701610b6d565b925050604084013567ffffffffffffffff811115610d3757610d366103f1565b5b610d4386828701610c78565b9150509250925092565b600060ff82169050919050565b610d6381610d4d565b82525050565b6000602082019050610d7e6000830184610d5a565b92915050565b7f4e487b7100000000000000000000000000000000000000000000000000000000600052603260045260246000fd5b600081905092915050565b6000610dc98261081b565b610dd38185610db3565b9350610de3818560208601610837565b80840191505092915050565b6000610dfb8284610dbe565b915081905092915050565b7f4e487b7100000000000000000000000000000000000000000000000000000000600052601160045260246000fd5b6000610e4082610aca565b915061ffff8203610e5457610e53610e06565b5b600182019050919050565b600082825260208201905092915050565b7f696e76616c696420646174610000000000000000000000000000000000000000600082015250565b6000610ea6600c83610e5f565b9150610eb182610e70565b602082019050919050565b60006020820190508181036000830152610ed581610e99565b9050919050565b7f696e76616c696420646174613200000000000000000000000000000000000000600082015250565b6000610f12600d83610e5f565b9150610f1d82610edc565b602082019050919050565b60006020820190508181036000830152610f4181610f05565b9050919050565b610f51816109c9565b82525050565b610f6081610aca565b82525050565b610f6f81610bc7565b82525050565b6000606082019050610f8a6000830186610f48565b610f976020830185610f57565b610fa46040830184610f66565b949350505050565b600081519050610fbb81610be3565b92915050565b600060208284031215610fd757610fd66103ec565b5b6000610fe584828501610fac565b91505092915050565b6000610ff982610d4d565b915060ff820361100c5761100b610e06565b5b60018201905091905056fea2646970667358221220ecd4997ba630f40b5686104263c2378e8a67f62b08aa3154a9a6f730523ac5ea64736f6c63430008120033",
  "linkReferences": {},
  "deployedLinkReferences": {}
}